:0A0000000C944A000C9477000C9455
:10000A0000000C9400000C9400000C9400000C9466
:10001A0000000C9400000C9400000C94A4000C94B2
:10002A0000000C9400000C9400000C9400000C9446
:10003A0000000C9400000C9400000C9400000C9436
:10004A0000000C9400000C94000000000000000066
:10005A000000000052616461722053746172746519
:10006A00640D0A0001002D4E414E00494E46000023
:10007A000A0004005400100060015E0003007001D1
:10008A006B00010077016E000000F894EE27ECBBCC
:10009A00F1E0FBBFEBBFE5BF8DE0A2E0BB27ED932C
:1000AA008A95E9F780E094E0A0E6ED930197E9F7F5
:1000BA00EAE7F0E085919591009761F0A591B591F5
:1000CA0005901590BF01F00105900D920197E1F797
:1000DA00FB01F0CFEFE5EDBFE4E0EEBFC0E6D1E013
:1000EA000C946B010A926A937A938A939A93AA93CD
:1000FA00BA93EA93FA93EFB7EA93552059F4E0E0FA
:10010A00E2BF66247724E3E0E3BFE2E0E5BFE1E093
:10011A005E2E09C0E0E0E3BF0E94BE01E3E0E5BF56
:10012A005524E1E04E2EE991EFBFF991E991B99199
:10013A00A991999189917991699109901895EA9370
:10014A00FA93EFB7EA93F30131963F01E991EFBFD2
:10015A00F991E9911895E0E0E0937301E093740155
:10016A00E0937501E09376014424552466247724AC
:10017A00AF9888E08A95F1F7AF9A80E28A95F1F70D
:10018A00AF98ACE3B0E00E94DE014420A9F00E94DF
:10019A00BE010E94D501A035E3ECBE07E0E08E0760
:1001AA00E0E09E0748F40E94D501EAE3F0E060E04F
:1001BA0070E00E9431020895E0E0F0E008958D9A1F
:1001CA00E2E8EFBDEAE1EEBDEEE4E7BDE0E2E6BD5E
:1001DA00ECEDF5E0FBBDEABD0895AA93A881A53B25
:1001EA0010F0E4EBE883A881E4EBEA1BE883F0E093
:1001FA000E94F901A8EEB3E080E090E00E94FE01BF
:10020A00DF01CB01E4EBF0E060E070E00E94310234
:10021A00E851FC4FFBBDEABD0EC0E8E1EAB9E6E8E9
:10022A00E0BDE3E3E9B9E0E0E0BD0895AA935D9B90
:10023A00FECFE881ECB921960895BA93AA9328973C
:10024A001A9310E0E985FA85309719F4A0E3EEDFF6
:10025A002BC0A985BA850E945902D0F4E12F1F5FED
:10026A00F0E0DE011196EA0FFB1FBF01A985BA85EE
:10027A00EAE0F0E00E945602E05DDB01EC93A9851A
:10028A00BA85EAE0F0E00E941E02E987FA87E1CF28
:10029A00113050F01150E12FF0E0DE011196AE0F4F
:1002AA00BF1FAC91C3DFF4CF18812B960895BA9380
:1002BA00AA93A881B981EC91E03031F0ED91A8833D
:1002CA00B983AE2FB3DFF5CF22960895A79A8D9AF8
:1002DA00929AE0E0E3BFE2BFECBFE2E8EFBDEAE1F9
:1002EA00EEBDE0E0EDBDECBDE7BDE6BDEBBDEABDB0
:1002FA00E9BDE8BDE2BDE5BDE4BDE3BDE1E0E9BFBE
:10030A00EBB7E064EBBFE3E0E5BFE0E0E4BFE0E4C5
:10031A00EABF55DF82DF7894A0E6B1E0C8DF0C2C93
:10032A000D2819F4F501359602C0F50135975F01DC
:10033A00E4EBF0E0AE16BF061CF0E1E0F0E06F017E
:10034A0000240A140B0414F0CC24DD24AA2D45DF62
:10035A0002DF4F01D50171DFACE268DFD4016DDF46
:10036A00A0E7B1E0A4DFA2E3B0E00E94DE01D7CFAC
:10037A00FFCFD30188279927E8E00E94ED01DF012A
:10038A00CB01E2B7FF27662777270E94E801E093AF
:10039A007301F09374016093750170937601089567
:1003AA00A0917301B09174018091750190917601C9
:1003BA000895109639F0A89580ED97E00197F1F726
:1003CA001197C9F70895EA2BFB2B682B792B08950F
:1003DA00EE230E2EFD01BC0131F0EE0FFF1F661F4A
:1003EA00771F0A94D1F708956F2F660F660B762F41
:1003FA0008957A9F702D6B9F700DF89F700DE99F7D
:10040A00700D6A9F602D710DFB9F600D711DE89F35
:10041A00600D711D8827FA9FF02D610D781FEB9FE3
:10042A00F00D611D781FEA9FE02DF10D681F781FFE
:10043A0008950024112490E1AA0FBB1F001C111C6F
:10044A000E1A1F0A18F40E0E1F1E01C0A1609A95FB
:10045A0099F7FD01D00108953F934F935F930024CC
:10046A0011244427552730E2AA0FBB1F881F991F62
:10047A00001C111C441F551F0E1A1F0A460B570B4E
:10048A0028F40E0E1F1E461F571F01C0A1603A9581
:10049A0059F7FD01BC01D001CA015F914F913F910B
:1004AA000895C7DFFD01089500240A160B06089572
:00000001FF
