:020000000C945E
:1000020041000C946E000C9400000C9400000C94BF
:1000120000000C9400000C9400000C9400000C945E
:1000220000000C949B000C9400000C9400000C94B3
:1000320000000C9400000C9400000C9400000C943E
:1000420000000C9490030C9400000C9400000C949B
:100052000000000000000000070001002D4E414E8C
:1000620000494E4600000100020054000300050052
:100072005600010062015A00010073015C00000099
:10008200F894EE27ECBBF1E0FBBFEBBFE5BF8DE0E0
:10009200A2E0BB27ED938A95E9F780E094E0A0E621
:1000A200ED930197E9F7E8E6F0E0859195910097E5
:1000B20061F0A591B59105901590BF01F0010590F1
:1000C2000D920197E1F7FB01F0CFEFE5EDBFE4E020
:1000D200EEBFC0E6D1E00C941C020A926A937A93B6
:1000E2008A939A93AA93BA93EA93FA93EFB7EA930D
:1000F200552059F4E0E0E2BF66247724E3E0E3BF51
:10010200E2E0E5BFE1E05E2E09C0E0E0E3BF0E946D
:10011200F504E3E0E5BF5524689420F8E991EFBFC8
:10012200F991E991B991A9919991899179916991FD
:1001320009901895EA93FA93EFB7EA93F30131968F
:100142003F01E991EFBFF991E9911895E0E0E09361
:100152006301E0936401E0936501E0936601E89432
:1001620020F8552466247724919888E08A95F1F73F
:10017200919A80E28A95F1F79198ACE3B0E00E94FF
:10018200560520FE15C00E94F5040E940C05A035FC
:10019200E3ECBE07E0E08E07E0E09E0748F40E9431
:1001A2000C05EAE3F0E060E070E00E947007089559
:1001B200E0E0F0E00895E0E0E1B9ECE0E0B9E4E08D
:1001C200E6BF0895E4EAE6BFE6B7E078E9F308950A
:1001D200E4E9E6BFE6B7E4FDFDCF0895AA93E8811E
:1001E200E3B9E4E8E6BFE6B7E078E9F30BC00E94C2
:1001F2001505A0E003C00E941505A0E4EFDFA88169
:10020200EDDFE6DF21960895AA93A981A03818F4BC
:10021200A881A03408F024C0A881B0E0E8E0F0E0B2
:100222000E946B07E055AE2FE2DFE981EF70AE2F3F
:10023200DEDFE981E295EF70E061AE2FD8DFC2DF49
:10024200A8E7CCDFA0E4CADFE881F0E0A7E0B0E0F5
:100252000E949507A1E00E941A07AE2FBFDFB8DF08
:1002620022960895A4E6B0E00E945605AEEABFDFEA
:10027200A5EDBDDFA0E8BBDFA8EAB9DFAFE3B7DFDA
:10028200A3ED0E941B05A0E4B2DFADE8B0DFA4E15C
:10029200AEDFA0E20E941B05A1EAA9DFA8ECA7DF5E
:1002A200AAEDA5DFA2E1A3DFA1E8A1DFAFEC9FDF0A
:1002B200A9ED9DDFA1EF9BDFABED99DFA0E497DF16
:1002C200A4EA95DFA6EA93DFAFEA91DF08950E94E0
:1002D200D50730E0383098F4A32FA0550E941B05B3
:1002E200A0E185DF00E010E00038E0E01E0728F41E
:1002F200A0E081DF0F5F1F4FF7CF3F5FEBCF0E9480
:10030200DC070C946503BA93AA932C97E0E0E88784
:10031200E987E8ECEA87E2E4EB870E94D507EC85FF
:10032200FD856E857F85A0E0B0E080E792E40E94C3
:10033200A406E887F9876A877B87E889F9890E949A
:100342002E070E94CC05A0EDBFE089E490E40E9454
:100352005606DF01CB01E0E0F0E064E373E40E94C3
:10036200A406EC83FD836E837F830E9420057F9326
:100372006F93FF93EF93AC81BD818E819F810E9429
:100382005A03AF91BF918F919F910E942D05E05C1E
:10039200FF4F8F010E9420057F936F93FF93EF938E
:1003A200AC81BD818E819F810E94CE02AF91BF91AF
:1003B2008F919F910E942D05AFE3B0E00E94CC0780
:1003C200EA1BFB0B9F010A93A22F1EDF0E94DC0790
:1003D200649608958D9AE2E8EFBDEAE1EEBDEEE49F
:1003E200E7BDE0E2E6BDECEDF5E0FBBDEABD089558
:1003F200AA931A930A93AA81A53B10F0E4EBEA832D
:10040200EA81F0E00E942E07A8EEB3E080E090E0DF
:100412000E943807DF01CB01E4EBF0E060E070E01E
:100422000E947007E851FC4F8F011BBD0ABD198164
:1004320008810C948E0320E030E040E050E0E2E2DC
:10044200EABBE0E0EBBBE7BBE8BBE4BBE5BBE2E257
:10045200E1BBE0E0E2BBE3BFE2BFECBFE2E8EFBD3D
:10046200EAE1EEBDE0E0EDBDECBDE7BDE6BDEBBD12
:10047200EABDE9BDE8BDE2BDE5BDE4BDE3BDE1E045
:10048200E9BFEBB7E064EBBFE3E0E5BFE0E0E4BF68
:10049200E0E4EABFE0E0EAB9E0E8E8B9E0E0E0BFC2
:1004A200E6B9EDB9A0E9B1E00E94670384DEDADEC5
:1004B2000EDF90DF7894042E052A19F42F5F3F4F48
:1004C20007C0E1E0F0E0E417F50711F421503040F5
:1004D200E4EBF0E0E217F30719F441E050E005C065
:1004E200022E032A11F440E050E0A22F81DFAAE09D
:1004F200B0E00E945605EBDE29DE8F011A930A93C3
:10050200D90101DFA2E3B0E00E945605D4CFFFCFAC
:100512000E94BC077B816A81F981E88177FB770FB2
:1005220067FD7160972F9E5781F078F0983190F4B3
:10053200AA27BB27882708948795B795A7959A95E8
:10054200D1F7EA23FB23682305C0E8947727EE2737
:10055200FF2766276F77769508F4606877F9A99187
:10056200B99189919991EA17FB076807790797FB77
:1005720008950E9434050E9489020E94B70719F467
:100582000E94AD07A1C0E6F70E94AD07A0E0B0E06F
:1005920080E89FE30E94FF0597C00E94BC07249752
:1005A2001A9310E00E943905E3E8F9EF62E27EE374
:1005B2000E9456060E943E05DCDF0E9439050E9419
:1005C200C6070E94FF050E943E05E0E0F0E060E001
:1005D2007FE30E94E90609F008F409C00E9443057E
:1005E200A0E0B0E080E09FE30E94480511E00E9495
:1005F2003905E0E0F0E060E87EE30E94E90609F0F8
:1006020008F408C00E943905E0E0F0E060E07FE312
:100612000E944805103041F00E9443050E94600587
:10062200ED83FE836F8378870E9443050E9439051C
:100632000E945606E983FA836B837C83A1EBB4ECB8
:1006420086E292E40E945606DF01CB01EDE1F5EE6F
:100652006DE272E40E94C6070E94FF050E944F05E8
:10066200ACE4B3E584E091E40E9406060E943905F9
:100672000E9456067F936F93FF93EF93E981FA816D
:100682006B817C81A1E1BDEE8EED9FE30E940606A7
:100692000E944F05AEE5BBE788EA9FE30E9406068B
:1006A200AF91BF918F919F910E94A40618812996C4
:1006B20008950E943405EBEDFFE069EC7FE30E94B0
:1006C200FF05DF01CB0169DF24960895BA93AA934F
:1006D2001A93689422F8E7E0E0936201E0E0E09385
:1006E2006F01E0937001E0937101E0937201A99AA6
:1006F200A89AE6BFE1B1EC7FE1B9E981FA81A0EA0B
:10070200BFE00E9458071E2F183008F0185010B989
:10071200E6B7E078E564E6BF1881239608950A9269
:100722001A92FA926A937A938A939A93AA93BA93B1
:10073200EA93FA93EFB7EA930E94D307109161010B
:100742000091600130916A0120916201E12FA09134
:100752006B01B0916C01F0E0EA0FFB1FAF01E1B158
:10076200E87FE83011F420E002C0E03119F4E091B2
:10077200670110C0E83111F0E83221F5031780F467
:10078200E02F0F5FA0916801B0916901F0E0AE0F18
:10079200BF1FEC91E3B9E6B7EF70E068E6BF11C0A6
:1007A200E0916D011E1760F4E0916701E160E09352
:1007B2006701E89421F8E6B7EF70E06AE6BFFBC094
:1007C20033C0F9C0E03529F4E3B1DA01EC931F5FDD
:1007D20002C0E03471F4E0916D01E1501E1720F087
:1007E200E6B7EF70E06803C0E6B7EF70E06CE6BF13
:1007F200E2C0E83529F4E3B1DA01EC931F5F02C0ED
:10080200E03209F402C0E03309F402C0E83469F4CA
:10081200203051F421FE03C0031728F005C0E091F7
:100822006D011E1708F424E0C0C0E83329F422E069
:10083200E6B7EF70E068BCC0E83611F0E83711F4B3
:1008420022E005C0E03611F0E03791F420E010E03C
:10085200E89421F8E0916E01E03029F421E0E6B756
:10086200EF70E06803C0E6B7EF70E06CE6BFA3C0CC
:10087200E03811F0E03929F521FE02C021E095C0EF
:10088200E3B1DA01EC931F5FE0916E011E17B0F441
:10089200E0916F01F0917001309711F426E085C06C
:1008A200A0E0E0916F01F09170010995E03029F02C
:1008B200E6B7EF70E06CE6BF7EC002C0689421F834
:1008C20002C0E83809F402C0E83929F4E6B7EF704B
:1008D200E068E6BF70C0E03AA9F4E6B7EF70E06CFA
:1008E200E6BF689422F8E0916F01F09170013097B1
:1008F20039F0A1E0E0916F01F0917001099501C01A
:1009020026E059C0E03B11F422E002C0E83AB9F413
:10091200E0917101F0917201309759F0A0E0E091FD
:100922007101F091720109953E2FE03011F020E043
:1009320002C026E03AC000E0E89421F802C0E83B99
:10094200E1F421FE02C021E030C0E02F0F5FA09150
:100952006801B0916901F0E0AE0FBF1FEC91E3B9FD
:10096200031720F4E6B7EF70E06C05C0689421F835
:10097200E6B7EF70E068E6BF1EC0E03C11F0E83C6D
:1009820089F4E6B7EF70E06CE6BFE0917101F09197
:100992007201309731F0A1E0E0917101F0917201A2
:1009A200099507C0E03039F423E0E6B7EF70E06D57
:1009B200E6BF689422F810936101009360012093CE
:1009C200620130936A010E94DA072696E991EFBF2D
:1009D200F991E991B991A991999189917991699145
:1009E200F990199009901895D30188279927E8E082
:1009F2000E942207DF01CB01E2B7FF276627772794
:100A02000E940907E0936301F0936401609365011A
:100A1200709366010895A0916301B0916401809181
:100A22006501909166010895AA930E94E300A8E7E8
:100A32000C94EF000E94F800A0E00C94F800E88506
:100A4200F9856A857B85AA89BB890E9433070E9442
:100A5200C3070E94560608950E9456060E949505F5
:100A62006627772708950E94BC070E94B20708955F
:100A7200AD81BE818F8198850895ED83FE836F835A
:100A82007887F6CFED81FE816F81788508950E9487
:100A9200FF05ED83FE836F8378870895A981BA816C
:100AA2008B819C810E9456060895109639F080ED44
:100AB20097E00197F1F7A8951197C9F70895309734
:100AC2006040704009F070580895552342F4503840
:100AD20011F4E0FF04C03196691F791F6BF050E8F2
:100AE200572711F45F93CFC05F3F31F0660F000CC0
:100AF20057956795752F08955F9300200AF0CFC030
:100B0200C8C050E8192E1522880F991F9527550F36
:100B1200879550E8072E0522660F771F7527550F18
:100B220067950895689401C0E8945F93F2DF703886
:100B320018F07F3F08F4A7C056E1571BAAF451955D
:100B420058300EF4593030F0EFEFFFEF6FEF7FE7E0
:100B520077F91AC077275523B9F0EE0FFF1F661FEA
:100B6200771F5A95D1F710C07727583028F0EF2F0A
:100B7200F62F672F5850F9CF552331F076956795A8
:100B8200F795E7955A95D1F700200AF44AD15F917B
:100B92000895689401C0E894309760407040B1F0C5
:100BA200002426F0772312F400943BD1172E7EE125
:100BB200112032F07A95EE0FFF1F661F111CF9CF3C
:100BC200EF2FF62F612D5F938ADF5F9108954F9388
:100BD200AF01FD01DA01AB01BC01CA01402D012CBC
:100BE200142E4F910895EA0FFB1F681F0895E09598
:100BF200F0956095EF5FFF4F6F4F08955F9381DF30
:100C0200903871F150E8152604C05F937ADF90386E
:100C120039F1703821F1572F591B2BF112F4D7DF1C
:100C2200FACF583118F0AA27BB278827583028F066
:100C3200AB2FB82F88275850F9CF552329F0869526
:100C4200B795A7955A95D9F7502D512572F0CBDF5C
:100C520038F46795F795E795739513F420C0B7DFDD
:100C62003EDF5F910895D8F7FBCFEA1BFB0B680BC1
:100C720051F010F40094BBDF662392F3EE0FFF1FD6
:100C8200661F7A95CBF7EE27FF27662777275F91B6
:100C92000895EFEFFFEF6FE77FEF5F910895EFEFBA
:100CA200FFEF6FE77FE75F9108955F932ADF703868
:100CB20051F3903841F301240894791F23F41CF373
:100CC20000203AF3ECCF0F921F932F933F934F9351
:100CD200112722279927689FA0018F9F302D410D50
:100CE200591F6B9F300D411D591F8E9F27D0BF9FEB
:100CF20025D06A9F23D0BE9F1DD0AF9F1BD0AE9F31
:100D0200110D291F391F491F591FE32FF42F652F7A
:100D1200522F4F913F912F911F910F9066232AF0EE
:100D2200550FEE1FFF1F661F02C073954BF2CDDEFB
:100D32005F910895100D211D391F02C0200D311D34
:100D4200491F591F08955F93DCDE703821F411208A
:100D52000AF49FCFA4CF903809F495CF01240894C8
:100D6200970B1BF4D4F30020F3CF792F1F932F930B
:100D72003F934F93112411272227332744275527C6
:100D820090E2AE17BF078607410730F0AE1BBF0BDC
:100D9200860B410B089401C08894551F221F331FF4
:100DA200111CAA1FBB1F881F441F9A9551F7F901F6
:100DB200612D4F913F912F911F91662332F0550F74
:100DC200EE1FFF1F661F7A9543F27FDE5F91089543
:100DD20099239AF0772342F0971748F029F4AE1737
:100DE200BF07860720F031F098948894089598946C
:100DF200089408951894889408957723C2F7971752
:100E020098F3A9F7EA17FB07680788F399F3ECCF81
:100E1200EA2BFB2B682B792B0895F195E195F04095
:100E22000895F09560957095E195FF4F6F4F7F4F54
:100E32000895EE230E2EEA2F19F0EE0F0A94E9F729
:100E42000895EE230E2EFD01BC0131F0EE0FFF1FBF
:100E5200661F771F0A94D1F708956F2F660F660BEE
:100E6200762F08958B2F880F880B982F08957A9FDD
:100E7200702D6B9F700DF89F700DE99F700D6A9F2A
:100E8200602D710DFB9F600D711DE89F600D711D3E
:100E92008827FA9FF02D610D781FEB9FF00D611DE1
:100EA200781FEA9FE02DF10D681F781F0895002436
:100EB200112490E1AA0FBB1F001C111C0E1A1F0A5D
:100EC20018F40E0E1F1E01C0A1609A9599F7FD013C
:100ED200D001089533D0EBDF0EF49FDF08953F93E6
:100EE2004F935F93002411244427552730E2AA0F21
:100EF200BB1F881F991F001C111C441F551F0E1A6F
:100F02001F0A460B570B28F40E0E1F1E461F571FB3
:100F120001C0A1603A9559F7FD01BC01D001CA0197
:100F22005F914F913F910895E894F7FF02C075DFFA
:100F32006894EA23FB230EF470DF0895E894F7FF28
:100F420002C06BDF6894B7FF06C0A095B0951196FA
:100F520000F8039400FA0895E881F9816A817B819F
:100F62000895A881B9818A819B810895E883F983D4
:100F72006A837B8308959A938A93BA93AA93089576
:100F8200689401C0E89401D007DE182E862F612DE7
:100F9200192E972F712D1B2EBF2FF12D1A2EAE2F2A
:100FA200E12D08955A934A933A932A931A930A93F6
:100FB20008955D814C813B812A81198108810895C0
:00000001FF
